:020000040000FA
:100000000202051205478F150204F40205B253E6F9
:10001000DF539BEF5315EF12057C320205B9E59BC8
:1000200030E604431510225315EF22020086EF64D8
:100030000A4E7008758DEF758BC08021EF64644E99
:100040007008758D5D758B808013EF64504E70075E
:10005000758D7EF58B8006758DFF758BFFC206D280
:020060008E22EE
:0D00630002000E75A41075C7C575D73F22A9
:0D0073000205C053DF7F75DC08E4F5EC22C8
:1000830002015BC0E0C0D075D000C006C007AF114D
:10009300C2CFC2CA75CDDF75CC76D2CAE51130E0C6
:1000A30034E50E25E0FEA280E4334E44E0F50EB4C1
:1000B300FF105311FE43150143D70143C701D296E5
:1000C3008013E50EB4E00E5311FE5315FE53D7FE15
:1000D30043C701C296E51130E72DE51025E0FEA2E6
:1000E30086E4334E44E0F510B4FF0B53117F431500
:1000F3008043D740800EE510B4E00C53117F5315B5
:100103007F53D7BF43C740E51130E22DE50F25E00C
:10011300FEA282E4334E44E0F50FB4FF0B5311FB10
:1001230043150443D704800EE50FB4E00C5311FBD1
:100133005315FB53D7FB43C704E5117002C2CAEF43
:100143006511600BE515540524FF929712057CD0C9
:1001530007D006D0D0D0E032C0E0C0F0C083C08268
:10016300C0D075D000C000C001C002C003C004C02D
:1001730005C006C00753E7FD120547E5156FFE549A
:100183007A6013EE30E60363D780EE30E50363CF86
:100193000212057C804CE5C730E00FE51513308073
:1001A30001B3500643110153C7FEE5C730E60FE51F
:1001B3001533308601B3500643118053C7BFE5C7DB
:1001C30030E210E515A2E2308201B3500643110478
:1001D30053C7FBE511600B20CA0875CDFF75CCFF33
:1001E300D2CA8F1543E702D007D006D005D004D07A
:1001F30003D002D001D000D0D0D082D083D0F0D0B1
:10020300E032787FE4F6D8FD75812002024C0203C8
:1002130069E493A3F8E493A34003F68001F208DFB3
:10022300F48029E493A3F85407240CC8C333C454BB
:100233000F4420C8834004F456800146F6DFE4806F
:100243000B01020408102040809004B1E47E019366
:1002530060BCA3FF543F30E509541FFEE493A36041
:10026300010ECF54C025E060A840B8E493A3FAE49C
:1002730093A3F8E493A3C8C582C8CAC583CAF0A3ED
:10028300C8C582C8CAC583CADFE9DEE780BEE514F4
:10029300B4011BE4F514539BEF12001E43E620C286
:1002A3008CC205C200E4F512F513D295D293A2AF26
:1002B3009203C2AFE51530E502D200E51520E01A3E
:1002C3003005080513E51370020512208C13C205CF
:1002D300758C5D758A80D28C8007E4F512F513C2A4
:1002E3008CC3E5139464E51294005008E51554504B
:1002F300645060087BFF7A047903800EE51520E5DE
:100303000C3000097BFF7A047964120586A20392FC
:10031300AF22E514B40103E4F514E514700CD29391
:100323007F50FE12002E75140222E514B402103021
:100333000633D2957F647E0012002E75140322E5E6
:100343001464037020200605E51530E618C206C2C2
:100353008EE5157BFF30E6067A02799180047A04F4
:1003630079031205862212048C120434120003123C
:1003730005A2D2AFAA0CA90D1204EEE51470F53054
:10038300042E20CA2BA2AF9207C2AF20CA1CE5914C
:1003930020E21775B52075B58200000000AFB57572
:1003A300B520EF30E4047F0FDFFEA20792AF80C4D5
:1003B30043870185878780BCE514B4010FE4F514F6
:1003C300D204C201C202C295C293C206A2AF920373
:1003D300C2AFE51520E702D202E51530E002D201F3
:1003E300300105E51530E008300210E51530E70B64
:1003F3007BFF7A037915120586C204A20392AF220A
:10040300E514B40106E4F51453E6DFE514700CC2F9
:10041300957F0AFE12002E75140422E514B404100D
:1004230030060DC206C2937BFF7A0379BB120586A1
:1004330022AB08AA09A90A1204D56014F59974011C
:10044300250AF50AE43509F5093099FDC29980E1D9
:10045300C28EE58954CF4410F589538EF75398FD26
:1004630022E514B40103E4F514E514700A7F64FE75
:1004730012002E75140522E514B4050C3006097B11
:10048300FF7A0279911205862285A716120590122A
:10049300007612053412006612050E1205AB120522
:1004A300991205211205721205688516A722030801
:1004B300FF0559011100010EFF010FFF011000019B
:1004C3001505011400C18402120000C100C101C15D
:1004D3000200BB010689828A83E0225002E722BB25
:1004E300FE02E32289828A83E493228A838982E457
:1004F30073E51530E60543D780800353D77FE515B1
:1005030030E50443CF022253CFFD227590C775A572
:100513002875F2EE75D50143D51075BF0222AF8859
:100523005388AF758DA9EF5440FEEF54104E4288A7
:1005330022759FD4E4FF0FBF20FC539DFC439D1005
:10054300439B8F22E5155495FF30870343074030C3
:100553009103430720220D0A4657205645523A205D
:10056300302E31310075E68075A82A75E7022275B1
:100573008E0A758921438840227595FF7594C0437F
:100583009104228B0B8A0C890D75140122E4F5A7C3
:1005930053D9BFF5D92275A904E5A930E7FB227B1E
:1005A300FF7A0379BB02058675E3C075E10122C2B8
:1005B3008DC28CD20532C28FC28ED2063253913F86
:0405C3005391FB3223
:00000001FF
